{
  "_format": "hh-sol-artifact-1",
  "contractName": "TokenSale",
  "sourceName": "contracts/TokenSale.sol",
  "abi": [
    {
      "inputs": [
        {
          "internalType": "uint256",
          "name": "_ratio",
          "type": "uint256"
        },
        {
          "internalType": "uint256",
          "name": "_price",
          "type": "uint256"
        },
        {
          "internalType": "address",
          "name": "_paymentToken",
          "type": "address"
        },
        {
          "internalType": "address",
          "name": "_nftContract",
          "type": "address"
        }
      ],
      "stateMutability": "nonpayable",
      "type": "constructor"
    },
    {
      "inputs": [
        {
          "internalType": "uint256",
          "name": "tokenId",
          "type": "uint256"
        }
      ],
      "name": "buyNFT",
      "outputs": [],
      "stateMutability": "nonpayable",
      "type": "function"
    },
    {
      "inputs": [],
      "name": "buyTokens",
      "outputs": [],
      "stateMutability": "payable",
      "type": "function"
    },
    {
      "inputs": [],
      "name": "nftContract",
      "outputs": [
        {
          "internalType": "contract IMyERC721",
          "name": "",
          "type": "address"
        }
      ],
      "stateMutability": "view",
      "type": "function"
    },
    {
      "inputs": [],
      "name": "paymentToken",
      "outputs": [
        {
          "internalType": "contract IMyERC20",
          "name": "",
          "type": "address"
        }
      ],
      "stateMutability": "view",
      "type": "function"
    },
    {
      "inputs": [],
      "name": "price",
      "outputs": [
        {
          "internalType": "uint256",
          "name": "",
          "type": "uint256"
        }
      ],
      "stateMutability": "view",
      "type": "function"
    },
    {
      "inputs": [],
      "name": "ratio",
      "outputs": [
        {
          "internalType": "uint256",
          "name": "",
          "type": "uint256"
        }
      ],
      "stateMutability": "view",
      "type": "function"
    },
    {
      "inputs": [
        {
          "internalType": "uint256",
          "name": "amount",
          "type": "uint256"
        }
      ],
      "name": "returnTokens",
      "outputs": [],
      "stateMutability": "nonpayable",
      "type": "function"
    },
    {
      "inputs": [],
      "name": "withdrawableAmount",
      "outputs": [
        {
          "internalType": "uint256",
          "name": "",
          "type": "uint256"
        }
      ],
      "stateMutability": "view",
      "type": "function"
    }
  ],
  "bytecode": "0x608060405234801561001057600080fd5b50604051610a5b380380610a5b83398181016040528101906100329190610164565b836000819055508260018190555081600260006101000a81548173ffffffffffffffffffffffffffffffffffffffff021916908373ffffffffffffffffffffffffffffffffffffffff16021790555080600360006101000a81548173ffffffffffffffffffffffffffffffffffffffff021916908373ffffffffffffffffffffffffffffffffffffffff160217905550505050506101cb565b600080fd5b6000819050919050565b6100e3816100d0565b81146100ee57600080fd5b50565b600081519050610100816100da565b92915050565b600073ffffffffffffffffffffffffffffffffffffffff82169050919050565b600061013182610106565b9050919050565b61014181610126565b811461014c57600080fd5b50565b60008151905061015e81610138565b92915050565b6000806000806080858703121561017e5761017d6100cb565b5b600061018c878288016100f1565b945050602061019d878288016100f1565b93505060406101ae8782880161014f565b92505060606101bf8782880161014f565b91505092959194509250565b610881806101da6000396000f3fe60806040526004361061007b5760003560e01c8063951303f51161004e578063951303f514610128578063a035b1fe14610153578063d0febe4c1461017e578063d56d229d146101885761007b565b80633013ce29146100805780633ae1786f146100ab57806351ed8288146100d457806371ca337d146100fd575b600080fd5b34801561008c57600080fd5b506100956101b3565b6040516100a29190610577565b60405180910390f35b3480156100b757600080fd5b506100d260048036038101906100cd91906105cd565b6101d9565b005b3480156100e057600080fd5b506100fb60048036038101906100f691906105cd565b6102bf565b005b34801561010957600080fd5b5061011261041d565b60405161011f9190610609565b60405180910390f35b34801561013457600080fd5b5061013d610423565b60405161014a9190610609565b60405180910390f35b34801561015f57600080fd5b50610168610429565b6040516101759190610609565b60405180910390f35b61018661042f565b005b34801561019457600080fd5b5061019d6104d2565b6040516101aa9190610645565b60405180910390f35b600260009054906101000a900473ffffffffffffffffffffffffffffffffffffffff1681565b600260009054906101000a900473ffffffffffffffffffffffffffffffffffffffff1673ffffffffffffffffffffffffffffffffffffffff166379cc679033836040518363ffffffff1660e01b8152600401610236929190610681565b600060405180830381600087803b15801561025057600080fd5b505af1158015610264573d6000803e3d6000fd5b505050503373ffffffffffffffffffffffffffffffffffffffff166108fc6000548361029091906106d9565b9081150290604051600060405180830381858888f193505050501580156102bb573d6000803e3d6000fd5b5050565b600260009054906101000a900473ffffffffffffffffffffffffffffffffffffffff1673ffffffffffffffffffffffffffffffffffffffff166323b872dd33306001546040518463ffffffff1660e01b81526004016103209392919061071b565b6020604051808303816000875af115801561033f573d6000803e3d6000fd5b505050506040513d601f19601f82011682018060405250810190610363919061078a565b50600360009054906101000a900473ffffffffffffffffffffffffffffffffffffffff1673ffffffffffffffffffffffffffffffffffffffff1663a144819433836040518363ffffffff1660e01b81526004016103c1929190610681565b600060405180830381600087803b1580156103db57600080fd5b505af11580156103ef573d6000803e3d6000fd5b50505050600260015461040291906107e6565b600460008282546104139190610817565b9250508190555050565b60005481565b60045481565b60015481565b600080543461043e91906107e6565b9050600260009054906101000a900473ffffffffffffffffffffffffffffffffffffffff1673ffffffffffffffffffffffffffffffffffffffff166340c10f1933836040518363ffffffff1660e01b815260040161049d929190610681565b600060405180830381600087803b1580156104b757600080fd5b505af11580156104cb573d6000803e3d6000fd5b5050505050565b600360009054906101000a900473ffffffffffffffffffffffffffffffffffffffff1681565b600073ffffffffffffffffffffffffffffffffffffffff82169050919050565b6000819050919050565b600061053d610538610533846104f8565b610518565b6104f8565b9050919050565b600061054f82610522565b9050919050565b600061056182610544565b9050919050565b61057181610556565b82525050565b600060208201905061058c6000830184610568565b92915050565b600080fd5b6000819050919050565b6105aa81610597565b81146105b557600080fd5b50565b6000813590506105c7816105a1565b92915050565b6000602082840312156105e3576105e2610592565b5b60006105f1848285016105b8565b91505092915050565b61060381610597565b82525050565b600060208201905061061e60008301846105fa565b92915050565b600061062f82610544565b9050919050565b61063f81610624565b82525050565b600060208201905061065a6000830184610636565b92915050565b600061066b826104f8565b9050919050565b61067b81610660565b82525050565b60006040820190506106966000830185610672565b6106a360208301846105fa565b9392505050565b7f4e487b7100000000000000000000000000000000000000000000000000000000600052601160045260246000fd5b60006106e482610597565b91506106ef83610597565b92508282026106fd81610597565b91508282048414831517610714576107136106aa565b5b5092915050565b60006060820190506107306000830186610672565b61073d6020830185610672565b61074a60408301846105fa565b949350505050565b60008115159050919050565b61076781610752565b811461077257600080fd5b50565b6000815190506107848161075e565b92915050565b6000602082840312156107a05761079f610592565b5b60006107ae84828501610775565b91505092915050565b7f4e487b7100000000000000000000000000000000000000000000000000000000600052601260045260246000fd5b60006107f182610597565b91506107fc83610597565b92508261080c5761080b6107b7565b5b828204905092915050565b600061082282610597565b915061082d83610597565b9250828201905080821115610845576108446106aa565b5b9291505056fea2646970667358221220b531f6f5f0b0ac936faced8a5b30588d86017c8275d7095daf74c759938dfac264736f6c63430008110033",
  "linkReferences": {},
  "deployedLinkReferences": {}
}